:1000000000FC0320613002003D2302003D2302007A
:100010003D2302003D2302003D2302003D23020058
:100020003D2302003D2302003D2302003D23020048
:0C0030003D2302003D23020097F4000075
:10003C004FF6FF7238B50446DFF8CC5A86B0ADF8EF
:10004C0002208DF805100120090A2A78ADF800006D
:10005C0002238DF806108DF804306946204628F0EE
:10006C00FDF8162803D12978204624F053F807B060
:10007C0030BD3EB504000D461ED0DFF8900A006876
:10008C00224619F01FFDFF2815D0002000900023F8
:10009C0001AA2946204613F075FD60B99DF80400AD
:1000AC0000F06CF9C00606D59DF8040000F066F966
:1000BC0010F0040000D001203EBDFEB5154600F046
:1000CC00B3FB15D100208DF80400DFF83C7A9DF8C5
:1000DC000400F97988421AD22A46214600F03EF8EB
:1000EC0000B100269DF80400401C8DF80400EEE7DA
:1000FC0021F032F850B100F09DFB40B99DF804009E
:10010C002A46214600F02AF8002600E01426304644
:10011C00FEBD7CB50D46044606214C4316466A4688
:10012C0020340821204624F043FEA8B900F074F8CE
:10013C0090B99DF80700002E14BF054320EA050571
:10014C00E9B2814206D08DF807506A460821204654
:10015C0024F042FE012076BD002076BD2DE9FC4145
:10016C008046444606235C430D4616466A460821E3
:10017C0004F1200024F01CFE00284AD100F04CF8B9
:10018C00002846D100F024FA040002D100F01DFA38
:10019C003FE0397A08F1E00822468900404624F015
:1001AC0007FE90BB204600F04FF828000ED13A7A9B
:1001BC00002120469206120E26F05CF828BB3A7AF3
:1001CC0000212046920027F0E1F915E0214600F0CD
:1001DC0028F850B9300004D02146002000F021F856
:1001EC0010B900F014FC14E005808178B1420CD0F9
:1001FC0086700EB900210180204600F025F8397A6E
:10020C0022464046890024F0E7FD00F000FC012066
:10021C0000E00020BDE8F6810622FF21684626F0AA
:10022C0029B8B0B5DFF8E03800221F7A00E0521C84
:10023C00D4B2BC4206D231F824508542F7D101EB3E
:10024C008400B0BD0020B0BD10B50021DFF8B82887
:10025C000AE030F82130DB4320F8213000EB810339
:10026C009C78491CE4439C70137A9942F1DB10BDD5
:10027C002DE9FE4F0646DFF89058287A0F46924635
:10028C009846800028F0A8F95FEA000903D100F035
:10029C009CF90A2070E00C9C029737464FF0060B35
:1002AC001BFB07FB029A08210BF1200024F094FDA4
:1002BC008DF80400304600F099F82A7AFF21484660
:1002CC00920027F063F99DF804004A460090297AC1
:1002DC0006F1E000890024F07FFD009E02990822BF
:1002EC000643286A00EBC70027F05AF9F4B1102234
:1002FC000021204625F0BEFFC0B9029900232246FA
:10030C00887900F0010026F09EFB00281CBF9DF9A7
:10031C003C00002803D00120DFF8F41708702246B7
:10032C0010210BF1230024F057FD06435FEA0A026B
:10033C0005D01C210BF1210024F04EFD06435FEA91
:10034C00080205D01C210BF1220024F045FD0643C8
:10035C000D9A4AB110210BF1240024F03DFD064307
:10036C000EAA00F02DF90643A87D08B100F097FA0B
:10037C00484628F035F9F0B2BDE8FE8F0623584305
:10038C00E0B56A460821203024F012FD10B99DF822
:10039C0007000EBDFF200EBDDFF86C27107808217A
:1003AC0013F05CBD38B500F081F816E0286A06231E
:1003BC0013FB04F300EBC402082103F1200024F02A
:1003CC00F7FC40B100F082FA27F0E0F82A6A00212D
:1003DC0002EBC400C171641CE4B2E9798C42E5DB28
:1003EC00A87D10B1BDE8314059E231BDF8B5DFF858
:1003FC001817CB79DFF81C47194600E01146CAB232
:10040C0042B125684A1EC9B20D4415F8011C81423F
:10041C00F4D11346DFF8F016C979DBB218464D1E3D
:10042C0007E017187F78165C175422680244567040
:10043C00401C2268A842F4DBAB4204DA0520BDE87C
:10044C00F84024F0C9BCF1BD70B500F02FF800E005
:10045C00641CE879E3B283420BD22B6AE6B2062223
:10046C00FF2103EBC60025F005FF0028F0D0E0B219
:10047C0070BDDFF8A426117839B1DFF89806016851
:10048C000C78204600F016F8204670BD38B50020D8
:10049C0000F00CF803E0E0B200F00CF8641CEA7910
:1004AC00E1B2914201D20100F5D032BD0024DFF857
:1004BC00585670472DE9F84F4FF0060B1BFB00FB0D
:1004CC008EB081460BF1200501AA0821284624F0A4
:1004DC006FFC00286BD10622FF2101A825F0CAFE73
:1004EC00002864D100F074F85FEA000803D100F032
:1004FC006CF80A205DE01C22FF2103A827F046F8C7
:10050C003A7AFF214046920027F040F80BF123067F
:10051C000AAA1021304624F04BFC60B91022FF21AE
:10052C000AA825F0A7FE30B99DF80A0001A900F031
:10053C00010026F095FA082200F03EF801AA0821E5
:10054C00284624F049FC054603AA1C210BF1210086
:10055C0024F042FC8DF8000003AA1C210BF12200B0
:10056C0024F03AFC044603AA1021304624F034FC53
:10057C00064603AA10210BF1240024F02DFC824620
:10058C0003AA00F01DF89DF8001042460D432543C8
:10059C003543397A4AEA05050543890009F1E0003B
:1005AC0024F01AFC0543404628F01AF800E0002518
:1005BC0028460FB0BDE8F08FFF2101A826F0E6BF5A
:1005CC0004210BF1250024F007BC042023F002BF0A
:1005DC00DFF83475387A800027F0FEBF2DE9F8413A
:1005EC0087B0FF208DF80000DFF81C75F87927F034
:1005FC00F3FF040003D1FFF7E8FF0A2031E01022DB
:10060C00FF2103A826F0C2FFFA79FF21204626F02D
:10061C00BDFF0622FFF7D0FF03AA1021022024F011
:10062C00DBFB054603AA1021032024F0D5FB054370
:10063C006A460121042024F0CFFBF97906462246B4
:10064C00052024F0C9FB074601AA0621062024F048
:10065C00C3FB80462046354327F0C2FF3D4348EAA2
:10066C00050008B0BDE8F081DFF89C2411784088C3
:10067C0024F086BAF0B5A9B006460D46144620F013
:10068C006BFD08B91420A6E0A4220021684626F0D0
:10069C007DFFADF80060DFF87064F078F27B27998D
:1006AC008DF80400307C490853088DF8A00002F046
:1006BC00010040EA410121F0020103F0010341EA8B
:1006CC004301100921F4807100F0010041EA00217E
:1006DC00500900F0010021F4007141EA4021900919
:1006EC0000F0010021F4806141EA80219208707CC5
:1006FC0021F0040102F0010241EA82012791022853
:10070C000CBF012000200DF12607787427F036FC71
:10071C00412807DB707C00B108209DF89910084334
:10072C008DF89900F07CB8B10121B974202206F142
:10073C0028010DF1390026F033FF202206F1480183
:10074C000DF1590026F02CFF202206F168010DF165
:10075C00790026F025FF00E0B874707B8DF8050059
:10076C0090B1DFF8B873102207F110010DF10600FB
:10077C0026F016FF9DF89900082805D1102239465D
:10078C000DF1160026F00CFF307B8DF8260030B1F1
:10079C001022DFF88C130DF1270026F001FF3079C1
:1007AC0048B1022D18BF032D03D1279840F0020049
:1007BC002790012100E000219DF899000143B078B9
:1007CC008DF8991000B1042001438DF89910214641
:1007DC00684613F04FFC29B0F0BD2DE9FC41904662
:1007EC0000F022F80ED10027DFF81C53E979F8B29B
:1007FC00884216D242462146FFF78BFC00B10026F8
:10080C007F1CF3E720F0A8FC50B100F013F840B9BE
:10081C009DF8040042462146FFF77BFC002600E0D1
:10082C0014263046BDE8F68115264FF6FF720C46AD
:10083C0090427047002100914179002301AA01F0F8
:10084C000101801D13F09EB970B504460D460620BB
:10085C00454388B01646082B03D1300758BF2235C4
:10086C0000D521351C220021FFF7A7FE01AA1C216F
:10087C00284624F09DFA80B99DF81E00C01F0A2856
:10088C000BD29DF83000F20801AB009002F001028F
:10089C0006F00101204617F0E1FA08B070BD38B53A
:1008AC0026F0EBF8FFF702FE0CE000F00FF825F055
:1008BC00E1FC28B9286A00EBC401887925F00AFB11
:1008CC00641CE4B2E8798442EFDB31BD286A06226D
:1008DC00FF2100EBC4007047F0B50446914E7068E0
:1008EC0085B04FF6FF7538B9009602238E4A29461B
:1008FC0001201CF071FA7060716819B30222029227
:10090C00FF2000233288039001930DF1120700970A
:10091C0004AB204607F01AFC60B99DF810009DF856
:10092C00111000EB0122100004D0706841892046A0
:10093C00FFF7C3FB328870680023294617F030F8A4
:10094C00706008B9012000E0002005B0F0BD3EB594
:10095C000C46002501460095002301AA204613F001
:10096C0011F938B99DF80400FFF708FDC00601D451
:10097C0001203EBD00203EBD2DE9F0416B4F0646E7
:10098C00884615463C6803E02089B04224D0246890
:10099C00002CF9D10C2027F01FFE040019D0268161
:1009AC0084F80A8000202060E07245B108212846B6
:1009BC0025F090FF606018B900F029F80AE060603B
:1009CC00396811B93C6004E0014608680028FBD185
:1009DC000C600CB9152018E026F0D0FF08B10020EF
:1009EC0013E00120E0722A4641463046FFF742FEF2
:1009FC0004464548C06900281CBF4368002B03D03F
:100A0C0000220021304698472046BDE8F081204660
:100A1C0027F0E6BD38B505464448046803E0208954
:100A2C00A84204D02468002CF9D1012032BDE07A10
:100A3C00012807D100F05CF820B13348007804217C
:100A4C0013F00CFAE17A2846491CE172C9B200F0A5
:100A5C0002F8002032BD38B504462B4D022902D0D5
:100A6C0003290DD01EE042F6C921FFF7E1FA02007E
:100A7C001CBFE869002818D04368B3B105210CE00D
:100A8C0042F6A621FFF7D4FA01001CBFE969002940
:100A9C000BD04B684BB102460421204601B0BDE897
:100AAC0030401847BDE8324000E031BD10B51F4A58
:100ABC000021146801E0214624686CB1238983422B
:100ACC00F9D1206800290CBF10600860606808B17B
:100ADC0027F086FDFFF79BFF002010BD0246042087
:100AEC001249096819B10B899342FAD1C87A704737
:100AFC000E48006828B1006818B1C17A0029FAD1F3
:100B0C007047002070470000EC100020B05100200E
:100B1C008E520020CC5100208D520020F84C002029
:100B2C00284D0020D05000205A9B0200D0510020AC
:100B3C0038B584B0044620F00FFB4179062201F051
:100B4C0001018DF80E10811D02A826F029FD002050
:100B5C009DF80E100090002301AA02A813F012F8C1
:100B6C009DF80400FFF7A6FC0546052120461FF062
:100B7C00ADFD284605B030BDA0B00BF0FFF8DFF896
:100B8C00ACB90BF1040158461DF09EFA0BF11400A0
:100B9C0027F018F8CBF808000DF060FE23F0ECF805
:100BAC001FF062FCDFF888A99AF8030048B900200E
:100BBC0000211FF04DF9CAF81C0010B101208AF871
:100BCC000300F149162027F066FB162000210024B3
:100BDC0026F0FCFDDFF85C190BF11C00142200233D
:100BEC00CDE9004A10901DF0EDFADFF84C09DFF862
:100BFC004C19DFF84C590022152300901020A847FF
:100C0C00DFF840191020002202230226A84710F01A
:100C1C002BFFDFF8341910200122A847DFF82C191C
:100C2C0010204FF0FF32A84723F07AFD012016F078
:100C3C0063FDDFF81C998DF860408DF864401A94C0
:100C4C008DF8674018AA00200121C84719AA012075
:100C5C000121C8471AAA02200421C8470DF16702D6
:100C6C0003200121C847DFF8EC180AF140021020DC
:100C7C00A8479BF80010DFF8E0785020B847DFF861
:100C8C00DC1802461020A8479BF800105020B847EB
:100C9C00DFF8CC1802461020A847DFF8C81810203F
:100CAC00FB2240F64803A847DFF8BC181020A847E1
:100CBC00DFF8B80818F0BEFB4FF6FD701FF010F906
:100CCC009BF800105020B8470346DFF8A408DFF863
:100CDC00A4180422CDE900601020A847DFF898087A
:100CEC00C02127F09FFADFF890084FF6FF71C02C57
:100CFC0002D001531834FAE7DFF88048DFF8800897
:100D0C00002600214FF0FF32CAF818602060204600
:100D1C0024F09EFADAF81800DFF86838214605222C
:100D2C0022F010FCDBF8040000214FF040424FF0A1
:100D3C00FF3310F0F9F80028F4D08046189619A863
:100D4C000DF1670118AA21F022FD002840F018824D
:100D5C00BDF864000026102840F00C829BF80000BF
:100D6C009DF86710814240F00582189F4FF6FF7086
:100D7C003988814200F0FF81080AC9B2912900F03C
:100D8C00B180B02900F0A880D02940F0F481B97866
:100D9C00072900F2E380DFE811F00800ED01ED0116
:100DAC00ED01ED010A014B019001002840F0E281B8
:100DBC00B879F97A0024ADF86B408DF86800B7F873
:100DCC0007008DF86F100821ADF86900B7F809001D
:100DDC00ADF86D0000201AAA10F0DAFD0AF104003B
:100DEC00DFF8B017DFF8B027DFF8B03727F0FAF9E3
:100DFC00000640F099830E20DFF8A8579AF80420DB
:100E0C0000230090DFF89807294627F0F7F9000631
:100E1C0040F08A8319209AF8042029460123009077
:100E2C00DFF8840727F0EAF9000640F07D839AF892
:100E3C000420DFF878171020922317F01DFF9AF882
:100E4C000420DFF86C1727F050F9000640F06C8393
:100E5C000AF10500DFF83C17DFF83C27DFF85437C0
:100E6C0027F0C0F9010609D10E209AF80520294671
:100E7C0000230090DFF8400727F0C0F9010607D1E6
:100E8C009AF80520DFF824171020922317F0F4FEAF
:100E9C00000607D19AF80520DFF8141727F025F97A
:100EAC00000602D0FF208AF8050022F0E9FF0AF1C3
:100EBC000100012140F6B8320023CDE90010DFF823
:100ECC0074160BF140001DF07DF9DFF8B00602211D
:100EDC00002224F0BDF94DE1397907F1080026F024
:100EEC00E8FB47E13E2848D00F284FD0102859D0B6
:100EFC000E2840F03F81B88841F20541884240F00D
:100F0C003981B8680178002940F03481C578B0F88F
:100F1C00010024F02FFF072800F22C817F2D00F018
:100F2C002981DFF8541600EB4000052201EBC004C8
:100F3C00617C481C607404F10C004554617CB1FB6D
:100F4C00F2F202EB8202891A002261740021052957
:100F5C0000F0DB80435601311A44F8E7112940F0C8
:100F6C000981B888ADF86800B87B8DF87200788973
:100F7C00002800F0B7800020BEE0B8780C2840F0C4
:100F8C00F9800C200AE000BF00C00020B88842F2B3
:100F9C003201884240F0EE8042F23200394615F0C0
:100FAC0087F8E7E0082000210DF0D2FBE2E0DFF843
:100FBC00E015102017F060FE06467878002840F007
:100FCC00CE807D89002000F11801D82900F0BB806B
:100FDC00DFF8A425105A4FF6FF7290420846F2D162
:100FEC00DFF894054418032024F8185C27F0E2F984
:100FFC00002844F8140C00F0A3800821017054F868
:10100C00140CA0F80150242027F0D4F954F8141C27
:10101C00002844F8100C00F0908001220023CDE948
:10102C000021DFF8101541F270721DF0CBF887E04B
:10103C00DFF85C15102017F01FFEBF8804463846F9
:10104C0024F098FE08282AD0DFF82C15054600EB72
:10105C00400001EBC0008068C0B1CDE9164027F01C
:10106C0079FA10B1179827F079FA179C204627F0D7
:10107C0083FA204627F098F9DFF8FC1405EB4500BD
:10108C0001EBC000406827F08FF9169C384623F01E
:10109C0037FC38461FF060FE38461EF021FF200654
:1010AC0063D1109827F05AFADFF8D00402210122FC
:1010BC008AF8066024F0CCF857E0BA88DFF8C81438
:1010CC0010201AAB17F0D8FD0BF10C0024F08FFB9D
:1010DC0000284FD00546008915F076FB284627F0EE
:1010EC0063F947E0ADF86E60D7F80600CDF86A00FA
:1010FC00B889ADF870000120DFF890148DF87300FA
:10110C0010201AAA17F0B8FD34E010B205212546BC
:10111C0090FBF1F015F8131FA07459BBC0B241B28B
:10112C0011F11E0FC0F2D281207D40F00200022886
:10113C0020D0002302220221DFE1084627F034F9F7
:10114C00012004F8040CDFF834040121022224F0FD
:10115C007FF8109827F000FA01208AF8060016F0A4
:10116C00F80F05D19AF8020010B922F073F901E0DA
:10117C0022F058F9189F002617B1384627F094F83A
:10118C005FEA48007FF5CEADDBF8080026F066FE7E
:10119C0000287FF4C7ADDBF8080025F0C7FD002858
:1011AC00F2D0074600780138082800F28381DFE886
:1011BC0010F009001700450081014F005700140082
:1011CC0028002E007868007840F00201022940F0D7
:1011DC0071811AA91FF0E0FD6CE122F051FE69E16A
:1011EC0078680078010700F1A180C00640F16281A7
:1011FC00142025F0A5F8002840F05C8120F0FCFAC2
:10120C0058E17868B0F8010015F0DEFA56E178681C
:10121C004588284624F0AEFD072800F24B81D649BC
:10122C0000EB400001EBC000C07D002800F04281C3
:10123C00E64910202A4617F01FFD3BE1786801684B
:10124C00B1F1004F00F03681406827F0ADF831E184
:10125C007868DD490023C288DA4826F0C3FF29E10B
:10126C00162023F0D5FE9AF80D0018B90CF0AEFA42
:10127C008AF80D009AF8070030B909F041FF0028F0
:10128C008AF8070000F01E8103F062F826F002FDD8
:10129C008AF8080026F028FD8AF8090026F000FDDF
:1012AC00CAF8200026F014FD8AF80A0026F022FD68
:1012BC008AF80B0026F0FAFC8AF80C0026F002FDE6
:1012CC00CAF8240026F0F8FCCAF8280026F006FD1F
:1012DC00CAF82C009AF80D0088B304F04BFB26F0EA
:1012EC00C7FCCAF830000AF112000AF114010AF125
:1012FC00160224F0BFFB26F0A9FCCAF8340026F035
:10130C0099FCCAF8380026F09BFCCAF83C0026F081
:10131C00A3FC8AF80E0026F0A5FC8AF80F0026F034
:10132C00F5F9E0B101208AF8100018E00F2025F043
:10133C0007F8002840F0BE8022F0ECF8BAE0AAF8DA
:10134C001660CAF81260CAE90C66CAE90E6626F085
:10135C0083FC8AF80E0026F085FC8AF80F009AF8B8
:10136C00110001308AF81100C0B23228C0F0A280FE
:10137C009AF80F109AF80B00554601F00F0141EA4C
:10138C00001005F8100F686A6E702E4615F8021CD6
:10139C002C462A4646F8200F15F8060C04F8071DB3
:1013AC00012102F8080D0020C84701200121224626
:1013BC00C8473246022004210026C84703200121D9
:1013CC002A46C84715F80A0C012873D19AF803006D
:1013DC0001286DD1DAF81C00002869D09AF80700B2
:1013EC00DAF82CE0BAF91420BAF91630BAF912105E
:1013FC00DAE90DC69AF80A804D469AF80E409AF82A
:10140C000F9017909AF80B000C920D936C4A0B915D
:10141C004FF40071CDE908490F96A946CDF838C0B4
:10142C000026CDF80080179B14909AF80C001390AE
:10143C00DAF820001290DAF824001690DAF8280076
:10144C0015909AF80D001190DAF83C000A90149857
:10145C000190139802901298CDE9030E16980590FE
:10146C00159806901198079054481FF01FF8012802
:10147C001EDB0546B0F5007F04D3504840F2FF1543
:10148C0080F8FF61DAF81C001AA926F01CFF1C9AE0
:10149C0072B1DAF81C00002126F012FF40B90421C9
:1014AC00DAF81C00454A6B1C0091002126F0B0F8BC
:1014BC008AF80660786808B126F076FF384626F080
:1014CC0073FF61E60020AAF80800E9E6D82807D3E4
:1014DC00207D0228FFF44EAE0023012201210CE0F6
:1014EC00CE2807D3207D00283FF444AE01230421ED
:1014FC00062202E0022204210223274617F8150FC8
:10150C00904203D1A07D01283FF634AE208817927B
:10151C000A4620F0D5FE01201799287038788842A9
:10152C0018BFA675397025E625F072FF001600204D
:10153C00D0170020C9170200C91A002061C201008F
:10154C00858C0100650F0200C15E0200E5230200DC
:10155C001972010049570200F93B0200C97E0200D2
:10156C00057F0200056A0200B96A0100A54E02005F
:10157C007A1C00200DCD00001C420020FC4E0020E7
:10158C003C990200F93701000D00020059310100AD
:10159C00E5740200B19E0000B94402005C1A002000
:1015AC00B71B002075040100B01A0020C5EB010028
:1015BC004D340100781A0020C51B0020003B002090
:1015CC00418E020040E20100F92F020009460200A0
:1015DC002DE9F04FADF5077DD0F8009006469B46FF
:1015EC0015468691484626F0F4FA4FF0000A09EBAE
:1015FC0000084FF0FF340027CDF814A2C14580F04D
:10160C00D980839409F101048DF810A2CDE981AA47
:10161C0014F8010C002800F0CD80252805D02946AF
:10162C003460D84701340137F2E73460859781ACD8
:10163C003146204600F0C3F82046314686AA00F019
:10164C00DAF830680178A1F168024FEA7202092ACF
:10165C002AD84FF0FF34DFE802F0050E1232323296
:10166C001D3232210146819A11F8013F682B1ED19F
:10167C0042F400710BE0819941F4006111E00146E4
:10168C00819A11F8013F6C2B14D142F48071819135
:10169C00023013E0819941F4005102E0819941F448
:1016AC0080510130819109E04FF0FF3407E042F0A6
:1016BC00200001E042F0400081900846017800F1E2
:1016CC00010973298DF81012C6F8009022D0C24679
:1016DC006E292CD1819843F66071084020284AD09D
:1016EC0040284CD0B0F5005FD0464DD0B0F5007F0F
:1016FC004ED0B0F5006F4FD0B0F5805F4FF0000AC0
:10170C0033D0B0F5807F30D18698FA1702C8C1E982
:10171C0000722EE09DF8040240061DD4CDF800B0F6
:10172C0081A886AA294685AB00F02BF93CE00DF187
:10173C00060881A986AA404600F076F9909B0246DD
:10174C00404629469847411CD0464FF0000A18BF26
:10175C0038448590074628E0CDF800B081A886AAC9
:10176C00294685AB00F0A6F81EE0869850F8041BBD
:10177C000F60869018E0869802C80F8002E0869869
:10178C0002C80F60D0460CE0869802C80F6008E0D3
:10179C00869802C80F7004E08698FA1702C8C1E94F
:1017AC00007286904FF0000A859F781C7FF426AF5C
:1017BC004FF0FF3738460DF5077DBDE8F08F0A680E
:1017CC001378202B0AD0232B0AD0302B0AD02D2BA8
:1017DC000AD02B2B18BF7047022306E0042304E029
:1017EC00082302E0102300E0012301320A600268A2
:1017FC001A430260E3E7FEB50446086816460D4638
:10180C0003782A2B11D13068011D31600068B0F1CA
:10181C00FF3F606005DC40426060206840F00100E2
:10182C0020602868471C2F6018E000210DF102028F
:10183C00303B092B07D843185F1C2F60475C5B7843
:10184C0057540131F4E70023471853549DF8020014
:10185C0020B10DF102001FF0DFFA606038782E28FD
:10186C0027D1781C28607A782A2A08D13068011D83
:10187C0031600068A060286801302860FEBD00203F
:10188C000DF10201303A092A07D83A18931C2B6043
:10189C00537892780B540130F4E700220A549DF8E7
:1018AC00020028B10DF102001FF0B6FAA060FEBDD7
:1018BC00A260FEBD2DE9FE4F054610680C46011DC9
:1018CC00116007680C9AE7B3AE6898469146002EF3
:1018DC0004D4384626F04AF8864203D3384626F01C
:1018EC0045F80646D5F804B00195B246B345C8BFD5
:1018FC00DA46D8F80000CDF808805044C8F800004B
:10190C00B3450FDD01980078C0070BD1AAEB060593
:10191C004FF00008A84505DA20202146C84708F1F9
:10192C000108F7E7DDF808800025B5420FDA57F813
:10193C002500B0F5807F1AD2C0B22146C8470135C8
:10194C00F3E70020214603B0BDE8F04F1047B34544
:10195C0015DD01980078C00711D0AAEB060500260A
:10196C00AE420CDA20202146C8470136F8E74FF08A
:10197C00FF30C8F8000026F051FC58210160BDE88A
:10198C00FE8F2DE9F84F054610680C46011D1160BD
:10199C0006680A9ACEB3AF689A469046002F04D4D4
:1019AC00304626F016F9874203D3304626F011F95B
:1019BC000746D5F804B00095B946BB45C8BFD94613
:1019CC00DAF800004844CAF80000BB450DDD009869
:1019DC000078C00709D1A9EB070A0025554504DAA0
:1019EC0020202146C0470135F8E70025BD4204DA26
:1019FC00705D2146C0470135F8E7BB4503DD009813
:101A0C000078C00706D1BDE8F88F00202146BDE85C
:101A1C00F84F1047A9EB07050026AE42F3DA202059
:101A2C002146C0470136F8E72DE9FC4716464FF032
:101A3C00000A0D46D1F8048040F2FD112022044624
:101A4C00CDF800A026F084FB04F5FE7084F8FDA10F
:101A5C000190287BA0F16301152900F29F800122DF
:101A6C005E4B8A401A4200F08580694601AA2846DE
:101A7C00334600F0B5F84FF0000A287BA0F16F0157
:101A8C004FF0000909294AD8012202FA01F140F26B
:101A9C004322114243D0287804EB08072646C0079E
:101AAC00019808D104F2FD116A682646091A914280
:101ABC00DCBF791A4E1C411C304600224FF4FF73D8
:101ACC004FF0000824F0F5FABAF1000F01901CBF9A
:101ADC0000F8018B0190B84207D8391A013820223E
:101AEC00013126F035FB002038702878C00605D46B
:101AFC00311B2046202226F02BFB35E0A64233D0AA
:101B0C00311B20463022302726F022FB009850EA69
:101B1C0009000FD1287840070CD4204610E0582833
:101B2C00B9D02868009900F00209002941D0019829
:101B3C002D214FE03178204600F8011B06F8017B7F
:101B4C00297B41290CD0582905D0612908D0782946
:101B5C0001D0702908D12A78120701D4612903D148
:101B6C007178417030207070204626F032F8504465
:101B7C00BDE8FC8791B93068011D3160006884F8BC
:101B8C00FC01C0B22968B0FA80F04FEA501A21F07B
:101B9C000201296004F2FB1101916EE7252803D0A4
:101BAC0058283FF462AF69E7252020800120BDE86A
:101BBC00FC87B9F1000F09D1400704D50198202109
:101BCC0000F8011901904FF0000964E701982B21EE
:101BDC004FF0010900F8011901905CE74230240034
:101BEC00F8B50546806814460F46B0F1FF3F04DD9A
:101BFC00286820F01000286001E00120A860287BF4
:101C0C001026582807D0782805D0702803D06F28C4
:101C1C0014BF0A2608262846194600F053F8AA686D
:101C2C004AB950EA010206D12878000749D52B7B26
:101C3C000020002112E02B7B642B04D16423B1F132
:101C4C00FF3F0BDC04E0692B08D1002906D5692382
:101C5C0001223A600022404262EB010132460094BC
:101C6C0000F0AAF83021AA68904205DA2268013007
:101C7C00531E23601170F6E7287B582818BF78286C
:101C8C0010D1297809070FD521684A1E70282260C7
:101C9C0008BF782008702068411E21603021017037
:101CAC00287B01E07028ECD06F280AD12878000737
:101CBC0007D520684178302903D0411E216030219E
:101CCC000170F8BD027B702A3FD0006843F6607348
:101CDC001840B0F5005F18BF402812D1A2F1640083
:101CEC00142830D8012303FA00F0324B18422CD1BF
:101CFC0010F0210F27D00868021D0A600068C11778
:101D0C007047B0F5807F26D0B0F5007F3CD0B0F5A1
:101D1C00006F20D0B0F5805FE0D02028DED1A2F19A
:101D2C006400142808D8012303FA00F0214B184250
:101D3C0004D110F0210FDED1582A39D10868021DC8
:101D4C000A60008805E0582A32D10868021D0A6032
:101D5C00006800217047A2F16400142808D8012300
:101D6C0003FA00F0134B184204D110F0210F01D1EB
:101D7C00582A1DD10868073020F0070000F108022E
:101D8C000A60D0E900017047A2F16400142808D859
:101D9C00012303FA00F0074B184204D110F0210F75
:101DAC00A9D1582A04D10868021D0A600078D0E72E
:101DBC000020CEE700081200F8B505461148124E77
:101DCC00582B069F144608BF064655EA010011D150
:101DDC003868421E3A60302202700BE028462246D8
:101DEC0000F014F83A68531E3B6000FB1453054690
:101DFC00F35C137055EA0100F0D1386825F0E9FE68
:101E0C000138F8BD1698020027980200102A06D057
:101E1C00082A09D1C00840EA4170C9087047000976
:101E2C0040EA01700909704719B9B0FBF2F00021C2
:101E3C00704780B5002325F0CDFA80BD2DE9F04F19
:101E4C0085B0814611F8010B09F1880509F1F00AFA
:101E5C00009009F1670B09F2151809F5C27409F520
:101E6C00AE7609F5D877182800F2BE83DFE810F0BB
:101E7C0019005B004F017D00BC03BC03D30096032B
:101E8C00EA00F500D700E6001501BC03BC036E01A7
:101E9C00BC03510142014C01CB02CB022602BC0314
:101EAC006A0211F8013B022209F18E002B7125F018
:101EBC00C9F80146022209F1900025F0C3F8014649
:101ECC00022209F1920025F0BDF80146022209F127
:101EDC00940025F0B7F82979022249002971E98884
:101EEC004900E980298949002981A9890901A98129
:101EFC00014609F18A0025F0A5F86988B9F80800AF
:101F0C0047F6FF72091A89B2914220DA6889298949
:101F1C00401CAA8949004843904228BF3B2017D255
:101F2C00012028701CE0052209F1620025F08AF8D6
:101F3C000146022209F1980025F084F8298AB9F8A3
:101F4C00080047F6FF72091A89B2914206DB282075
:101F5C00012188F80B0088F80A1054E30120A873BB
:101F6C000021A9F81E1030704DE39AF81500C20735
:101F7C000BD49AF80C101A208AF80D00012902D102
:101F8C00FF220D213FE00D2182E100208BF80000A3
:101F9C008BF8050001238AF81030082209F1B400EF
:101FAC0025F050F80146022209F1BC0025F04AF850
:101FBC0009F1AC0501460822284625F043F80446F1
:101FCC000821284624F0EDF809F1A0050422214649
:101FDC00284625F037F80421284624F0E2F809F1C8
:101FEC00A40025F0A1FA09F19C0025F037F8DFF8E0
:101FFC001C06018841F0800101809AF80C00012830
:10200C0007D1FF220421484605B0BDE8F04F17F078
:10201C0069BC042190E101218AF80E10F3E2002042
:10202C0000218BF800008BF805108AF800000120C5
:10203C008AF801108AF80C000B2129E101208AF89A
:10204C000F00E0E248461AF095FA9BF805000028CC
:10205C003CD0484618F0A2FCCBE248461AF08AFA6B
:10206C009AF81600010703D440F64800A081E081DD
:10207C00DFF89C0541788806E3D521891B2904BF2C
:10208C0060891B2807D1A089B0F5A47F04BFE08923
:10209C00B0F5A47FD5D01421FAE098F800000128FF
:1020AC0011D011F8012B09F58D7088F8032002224C
:1020BC0024F0C8FF0146022209F58E7024F0C2FFFD
:1020CC00012188F800109BF80500002800F0A18180
:1020DC0098F80200002804BF98F80100002808D1E5
:1020EC00484618F009F9002800F08482012088F88D
:1020FC00020088E29AF81500C10658BF12202AD5B2
:10210C0048461CF0E9FE74E2002030727BE209784C
:10211C0080E108782070497861709BF80F000128E5
:10212C000ED19BF810000F38012802D9C01F03D024
:10213C0069E20122727366E2387B40F0010051E2E1
:10214C0005B00020BDE8F04F22F044B99AF8150014
:10215C00820758BF0F2040F1478208784A7800EB7D
:10216C00022333828878CA7800EB022373820879C1
:10217C004A7900EB0223B3828879CA7900EB0223F7
:10218C00F3820A7A3276487A8A7A00EB02237383D6
:10219C00C87A0A7B00EB0223B383487B8A7B00EB73
:1021AC000223F383C87B0A7C00EB02233384487C34
:1021BC008A7C00EB02237384C87C0A7D00EB02232B
:1021CC00B384487D897D00EB0122DFF84804F2845A
:1021DC0001788A0658BF1A2513D509F5BC700490EE
:1021EC00718B0391307E0290B9F808100191F08A3E
:1021FC000090B38A728A318A484615F0FDFFA8B167
:10220C001E259AF81500410758BF0F20A3D52A4662
:10221C000F21484620F088F9F08A0090B38A728A20
:10222C0099F8061028461CF0C9F8ECE1738A0222D2
:10223C002B81B08A6881F18A2A710022A981EA80F7
:10224C00B9F83420D41D6C80B9F83250B3EB550F6B
:10225C0002BF9042B9F83600B1EB101F2CD09BF89E
:10226C000F00012804BF9BF810000F2804D1FC219B
:10227C00484617F0FBFA15E09BF81A0000281CBF23
:10228C009BF810001A2809D00F218BF81F10FE2183
:10229C00484605B0BDE8F04F17F0E8BAFC214846B7
:1022AC0015F09AFDF08A0090B38A728A318A99F8F7
:1022BC0006000FF091FAA6E110213DE09AF8160005
:1022CC0010F0090F08BF162000F08E8108784A78AC
:1022DC00024002F007020A70787B02401CBF511EBC
:1022EC000A420AD0510748BF042206D402210A42EE
:1022FC0002D14908FBD100E00A46100008BFBA7AA7
:10230C00FA72042A03D148461CF04DFAA083F87ADD
:10231C0023F020FE3871A28BB97B01231DF0B8FE8F
:10232C000146208B884205D3A28BB97B38790123D7
:10233C001DF0AEFE78801721484605B0BDE8F04F81
:10234C0015F04ABD48780A78824207D1104010F047
:10235C00070008702ED0431E18420FD01E221821E1
:10236C00484620F0E1F899F80610002300221E20C0
:10237C000FF09CFF387B40F0400033E1F8728A7814
:10238C00C97802EB01233B81B9F808105A1A92B2B2
:10239C0047F6FF739A4203DB282088F80B003BE0DA
:1023AC000121B971042803D148461CF0FCF9A08323
:1023BC00F87A0FE09BF81000162806D1BA7A99F833
:1023CC000610002013460FF071FF0220B871012196
:1023DC00F973B87A3871A28BB97B387901231DF067
:1023EC0057FE0146208B884205D3A28BB97B3879E6
:1023FC0001231DF04DFE7880387B012140F0400018
:10240C0038733170FFE0142804BF9BF805000028D6
:10241C0006D13D2188F80B10012288F80A20F2E041
:10242C0008784B788A78CD7800EB03200B7902EB97
:10243C0005224D7903EB05238D79C97905EB012133
:10244C00009D152D2DD144F291254FF4A47644F224
:10245C00902C1B2802DA1B2032460EE0FC2802DBF3
:10246C00FB20624609E0B2F5A47F02DA32461B205B
:10247C0003E0AA42A4BF6246FB201B2B02DA1B23FB
:10248C0031460EE0FC2B02DBFB23614609E0B1F583
:10249C00A47F02DA31461B2303E0A942A4BF6146A4
:1024AC00FB236082E2822382B9F89201884288BFC2
:1024BC000846A182B97A042905D140F691239842A5
:1024CC00B8BF4FF42960E38B984214BF0125002557
:1024DC00E083042903D148461CF065F904E0E18A45
:1024EC00A089884228BF0846A28B904214BF0121C4
:1024FC0000210D43A083618A2089884228BF0846A9
:10250C00228B904214BF012100210D432083A28B0A
:10251C00B97BB87A01231DF0BBFD0146208B8842A4
:10252C0005D3A28BB97BB87A01231DF0B1FD78805D
:10253C00208A6189814228BF0146628B914214BF77
:10254C00012000206183344B05438A421A6899F8B4
:10255C0006308041091D02EB4312C00F117610B1F9
:10256C0048461DF0A9F8009814280ED145B1E08B0F
:10257C000090638BA28B218B99F8060010F066FCFF
:10258C001521484615F060FB33E01DB1387840F05A
:10259C0008003870397841F020011EE008780E28C8
:1025AC0014D00F2809D0122804D0142812D01628C1
:1025BC0015D028E00021317225E0012030739AF803
:1025CC00151001F0FD018AF815101CE003208AF8A3
:1025DC00140018E0397841F01201397013E0387B9F
:1025EC0040F0120038730EE088F80C0048461BF0DF
:1025FC0014FD40B90948007805B04FF48041BDE89E
:10260C00F04F11F02BBC05B0BDE8F08F3C52002010
:10261C00AC4E00205C500020E85000206C52002092
:10262C002DE9F84F012020F00BF8012818D1DFF824
:10263C009C76387825F03BFE5FEA000804BF00204A
:10264C0021F0C8FE002088F8080008F1040013F0FF
:10265C0039F905F0EBF8050003D1812025F0AAFF2C
:10266C002FE30120687107201FF0BDFCDFF8609696
:10267C0099F80100DFF85C26401C89F80100A87964
:10268C0088F80A003978402008F15C07117010F0C6
:10269C00FDFC2860796838684A78D10623D5016E2C
:1026AC0008680079032809D03968086E0168087930
:1026BC0003280CBF0120002021F08CFE3968086E25
:1026CC000168386801F1080A90F8841001291CBFD0
:1026DC00002021F07FFE3968D1F88C00296800F5C4
:1026EC00B060C86053E0D0F8A010086800790328E7
:1026FC000AD03968D1F8A0000168087903280CBF0A
:10270C000120002021F066FE3968D1F8A000016894
:10271C00386801F1080A90F8CC1001291CBF002080
:10272C0021F058FE3968B5F89801DFF8AC35D1F8CE
:10273C00D4202968CA609AF82640DFF8A025032C1B
:10274C001FD8DFE804F002061014C86800F5B0606A
:10275C0002E0C86800F53470C860118805F5AC70EB
:10276C000187108811E0C86800F5355002E0C86890
:10277C0000F6B870C860198805F5AC700187188828
:10278C0003E0CA6802F5B062CA60A5F8980128682F
:10279C00DFF84C450622C16805F12C0601F5907155
:1027AC00C1609AF800000AF10201C0F3801085F8AC
:1027BC00520105F5A67024F0F3FE387D04220AF1CF
:1027CC000E0185F8E50105F1240024F0E9FE2368EB
:1027DC0004220AF10E0103F10C00AB7900EB43105B
:1027EC0024F0DEFE2068AB7903220AF1120100EB23
:1027FC00431303F1100024F0D3FE9AF815000222C3
:10280C000AF11601B07005F1300024F0C9FE022265
:10281C000AF1180105F1320024F0C2FE02220AF17D
:10282C001A0105F1340024F0BBFE308902220AF1B2
:10283C001C01688405F1360024F0B2FEB07840002B
:10284C00B070B0884000B080F0884000F080718992
:10285C000304DB0B090171816A8C89B2521C5A4347
:10286C008A4280F0B88080B2002800F0B48005F174
:10287C002E01284623F07EFB0520A881284623F054
:10288C0072FC05220AF11E0105F1620024F088FE9B
:10289C009AF823004009307022F012FA6882B8F8D6
:1028AC002A1005F5AC72401AD0809AF8230005F175
:1028BC00620100F01F00307428461EF0ABF97968F5
:1028CC0038684A78D1064CBF016ED0F8A010086861
:1028DC000021DFF810A40171AA79DAF8000041F6A2
:1028EC00210152018152AB79002200EB43114A8045
:1028FC00A97900EB411042607968DFF8EC034A7863
:10290C00D1060DD5DFF8E4138A7853060AD5DFF823
:10291C00E023118841F20A42914208BFDFF8D40348
:10292C00C5F8C001D5F8C01128468847DAF8003040
:10293C00A97903F10E0249015054DAF80020A97963
:10294C0002F10E004901425CB273DAF80000A97979
:10295C0000EB41120020D073317B717378684178A1
:10296C00CA0618D595F8BA0108B921F033FD05F55A
:10297C00DD7002790178A87920F0EAFA284624F073
:10298C00AAFEDAF80020A97902F1120098F82920A1
:10299C004901425232E0386890F870108A0704D529
:1029AC0088080CBF0220012000E0002005F5DD7234
:1029BC00107101F0030128461DF0B2FB386890F845
:1029CC007110A87925F04AF83868B0F87200C0B2D6
:1029DC0025F0ECFD30B9C8480078802111F03EFAA2
:1029EC003B2176E03868AB79C449B0F87220DAF84C
:1029FC000000097800EB431025F0C3FBA879DAF846
:102A0C0000302268400103F1140102440A50DAF844
:102A1C000000A979DFF8E8B200EB4112B9489061E7
:102A2C00DBF814000078C1074CBF1F200F20DBF827
:102A3C00141009788A0748BF40F02000DBF8141006
:102A4C0009784A0748BF40F04000DBF814100978B9
:102A5C000A0748BF40F080002168AA7901EB4213B5
:102A6C0018722068A97900EB41120B205072216872
:102A7C00AA7901EB42100421A34A81721378012B2D
:102A8C0006D12068A97900EB41120120D07207E031
:102A9C00DBF824002168AA79407801EB4213D87244
:102AAC002168A87901EB40121F2111762068AA79C0
:102ABC0000EB421100204876A87913F063FFAA7945
:102ACC00216852018850AA7921685201885820B98E
:102ADC000721284622F024FFF3E08C4A1068A979DC
:102AEC0000EB011025F0D8F9A8792168874B01EB90
:102AFC004012196801EB001050602068A97900EBB6
:102B0C0041125168F163AA79520181587A48716473
:102B1C000078042111F0A2F97968DAF800004A78FB
:102B2C00D10648BF022109D4A97900EB4112137CCC
:102B3C0003F00303022B14BF042106214FF4C873C6
:102B4C00B288AF798A18698AAA6100EB47105143A1
:102B5C00B1FBF3F340F6C4115B1C6B61D5F800C0FC
:102B6C00DCF80C7001FB0272D21AA2F5A86282602A
:102B7C00DAF80000AA7900EB42139A682F6800F18A
:102B8C000C030C30BA60AA7952019F5C07F0EF0776
:102B9C008754A879DAF80020400102F10C031F5C7D
:102BAC000C3207F07F071754A879DAF8002040019F
:102BBC0002F10C031F5C0C3207F0F00747F0020720
:102BCC001754DAF80000AB7900EB4310427B02F0AB
:102BDC00F00242F001024273DAF80000AA7900EB2D
:102BEC00421398682A6810612368B778AA7903F1B0
:102BFC0014006B6952015B0011FB073303F5F6639C
:102C0C00835095F8BA0104280BD12068AF7900F1F4
:102C1C00140314307F01DA59AB795B0102F5616260
:102C2C00C2502068AF7900F114037F01DA59C5F85E
:102C3C005821AA7900EB4210C37C03F0F00343F057
:102C4C000403C374DBF830002268AB79006802EB34
:102C5C004317F28864234243B2FBF3F35943A1F5C3
:102C6C009661F9612068A97900EB4110C27E02F0EF
:102C7C00F00242F00402C276DAF80000A97900EB07
:102C8C0041122868426025F0B5FB38B195F8050172
:102C9C00010703D50E21284616F0E8FD07201C4934
:102CAC000870AA79404689F802201EF095FAAA7994
:102CBC00002140461BF026F828681649164A416147
:102CCC008261BDE8F14F03F0B5B900BF7F5200201F
:102CDC007C500020835200203252002030520020C1
:102CEC00E8500020E450002061E70100AC4E0020C9
:102CFC0042520020EDD801006C5200206A52002094
:102D0C0084930200984E002076520020EC50002054
:102D1C006852002069700100020480802DE9F04F98
:102D2C0087B00546A97800274FF0060ADFF8CC6675
:102D3C0010293CD8DFE811F011005E035E035E033E
:102D4C005E033C00CB005E035E03BD021101FC0080
:102D5C000E035E038F02D40256036878002826D136
:102D6C0025F074FA044625F075FA054622F07EFB30
:102D7C008DF8000022461021022022F02DF82A4660
:102D8C001021032022F028F86A460121042022F0A9
:102D9C0023F89DF80000012818BF032807D1012053
:102DAC0017F08CFD02460621062022F015F821E3CF
:102DBC0068780028FBD195F80CB06C890090E97804
:102DCC00002301AA01F00101281D10F0DBFE4FF0D9
:102DDC000108002871D19DF80400FDF7CFFA814657
:102DEC00BBF1080F08BFB846307A800025F0F4FB21
:102DFC00050003D1042021F0EDFAFBE270780228E3
:102E0C000CBF012000209DF8041000905B464A4640
:102E1C002046FDF719FD1422002102A824F0B6FB70
:102E2C009DF8040002AA10211AFB00F0243021F0B6
:102E3C00BFFFA8B91022FF2102A823F01BFA78B912
:102E4C009DF8040006AA04211AFB00FA0AF12500D9
:102E5C0021F0AEFF02AA09F0010120461CF052FC41
:102E6C00317A9DF804002A468900E03021F0A0FF59
:102E7C0098B92846FDF7E8F9BA4609E005EB800059
:102E8C00018819B18278204623F04FF90AF1010A22
:102E9C00317A5FFA8AF08842F0D3B07A30B95FEABF
:102EAC00897003D53178204621F06AFE9DF8040024
:102EBC00FDF79CFA284625F093FB7078022805D183
:102ECC00B8F1000F02D020461AF0F6F992E2A88869
:102EDC00FDF7ECFD25F05CFB0028F7D1F07D012817
:102EEC0008D1FDF7D3FAF279706AF775002124F056
:102EFC004DFB17E0307E012803D1FDF76FFB3776D1
:102F0C0010E000240AE0706AE5B2415D012904D1A9
:102F1C00E0B2FDF7CFFA716A4F55641CF179E0B25B
:102F2C008842F0D3502023F0A5F8FDF73BFA61E27C
:102F3C0024F024FD00280CD0F06900281CBF046884
:102F4C00002C07D0286900906B7B2A7B6989E81CD0
:102F5C00A0474EE26889012141E2687800240028EC
:102F6C0040F0D680A879C10740F1D2800822002118
:102F7C0005A824F00BFBA8881EF0EEF8040000F066
:102F8C008D806F694FB30622002107F1110023F0E9
:102F9C0071F968B306220021384623F06BF9D0B9D9
:102FAC00387C4FF0000900F0010809F1010987F89D
:102FBC0011900020009000230022414607F11100DF
:102FCC0010F0E0FD00285FFA89F002D10028ECD166
:102FDC0001E000280CD10020686160790622A11D57
:102FEC0000F001008DF81A0005A824F0D9FA1FE0B2
:102FFC006F69EFB1387C062207F1110100F0010076
:10300C008DF81A0005A824F0CBFA6079012805D1B7
:10301C000622A11D04F10C0024F0C2FA062207F1CD
:10302C001101A01D24F0BCFA387C40F00200607144
:10303C00A879410720794CBF40F0020000F0FD0058
:10304C002071A9790A0754BF00F0DF0040F020007E
:10305C002071A8799DF81B10FF24800800F0010056
:10306C0008438DF81B00A9794FF01E08DFF8907308
:10307C00C90801F0010140EAC1008DF81B00696923
:10308C0069B31022684624F08BFA1021684623F0AD
:10309C0088F84FF00009DFF86CB30CE0FDF728FD61
:1030AC000028D6D03078042110F0D8FED1E709F1F1
:1030BC0001005FFA80F99BF8000081450FDA18FBDC
:1030CC0009F039680A5CFF2AF1D0084400F10D01BF
:1030DC001022684623F0F0FB0128E8D14C46002072
:1030EC009DF81A100090002304AA05A810F04AFDC0
:1030FC00FF2C5BD0342859D1707D30B3012855D1C9
:10310C00A888052101241DF0E1FAA888FDF7CEFC62
:10311C0068780B2804BFA888FDF70AFDF069002821
:10312C001CBF4368002B0FD06A78A88801219847F0
:10313C006878002808D1A879C10705D52246F4691A
:10314C00A8880321636898474CE118FB04F438689D
:10315C0000210091015D401C002304AA204410F0C2
:10316C0011FD18BB9DF81000FDF7A4F9F0B9FDF79F
:10317C0019F9FDF769F98DF81000E86800280CBF03
:10318C00002101690022039202910190686905A94E
:10319C0000902B69AA689DF81000FDF769F80446A9
:1031AC00A888FDF799FB200043D148E000209DF84A
:1031BC001A100090002304AA05A810F0E3FC20B11B
:1031CC00FDF742F98DF8100019E06869B8B19DF867
:1031DC0010006A4610211AFB00FA0AF1230021F0B4
:1031EC00E7FD60B91022FF21684623F043F830B99F
:1031FC009DF81A0005A900F0010023F031FC9DF8A0
:10320C001000F179884224D2E86800210391026908
:10321C00019005A90292686900902B69AA689DF833
:10322C001000FDF725F80446A888FDF755FB200093
:10323C0005D09DF81000FDF73DF9FDF7B3F820001F
:10324C0008D1707A0028A8887FF460AFFDF7E2FB04
:10325C005EE7152459E7687806281FD1A8881DF069
:10326C007BFFD8B1317D491E032917D8DFE801F067
:10327C00020E08134179A8880022FDF77DFB0DE0B2
:10328C000022002140F2094003F0C8F9A88805216A
:10329C001DF01CFA02E0A888FDF74AFCF069002832
:1032AC001CBF4368002B03D06A78A888022198477A
:1032BC009FE00097E978002301AA01F00101281D85
:1032CC0010F060FC0028F3D19DF8040005F10C020D
:1032DC0004211AFB00FA0AF1250021F07DFD88E09B
:1032EC00F06900281CBF4368002B03D0A88800227B
:1032FC0000219847707810B9A88805216FE0A8883C
:10330C001DF02AFF040075D0A87AC10712D50097CA
:10331C0061790023002201F00101A01D10F032FCA4
:10332C0000281EBF60790028012803D0E868C0F38C
:10333C00402028B1707C022807D1A87A010704D458
:10334C00A888032122F0D3FE54E06179A88805F106
:10335C0008022CE02F7BAD8828461DF0FDFE0400F2
:10336C0047D024F00BFB002843D100906179002357
:10337C0001AA01F00101A01D10F004FC50BB9DF846
:10338C000400FCF7FBFFFF280ED0790700D4B8B17E
:10339C0007F00C07042F11D0082F0BD00C2F0FD1D6
:1033AC0000F0090109290BD0617900222846FDF7AC
:1033BC00E3FA1EE010F0090F02D1F5E7C107F3D5CF
:1033CC0001220092A37C9DF8041002462846FDF7CA
:1033DC003BFA0EE070780028E6D10521284622F051
:1033EC0086FE06E0FDF784FB18B13078042110F05E
:1033FC0035FD0127384607B0BDE8F08FEC100020F2
:10340C00B0510020845200202DE9F04F9DB00446AD
:10341C00DFF81C05406818B18047002800F047828F
:10342C00DFF810A5DFF810B50E940DF13C099AF8F1
:10343C000000411E002C0C910BF1180418BF012147
:10344C009BF80280002700258BF80F109BF80110C9
:10345C000D91C0B287421ED2B84517D0FEB20021E2
:10346C004A460423304624F0F1F90F9810F4403FFB
:10347C0040F00400C0B218BF01357C2806D130469C
:10348C000621F82222F0DAFFF82020709AF80000CA
:10349C000C340137DDE7E9B201380022884204D14F
:1034AC009BF80500002800F03F82CDF82C80DDF859
:1034BC003880DFF87C94B8F1000F404608BF10202C
:1034CC00069015AE00200290DDE90C74002538043E
:1034DC0000F0EF819BF80F0010B901208BF80F0062
:1034EC00E0B200210FAA042324F0B0F90F98B8F130
:1034FC00000F19D010F4403F18D04FF400609AF828
:10350C0000100135013FABF810009BF80F0001389B
:10351C008BF80F00012050FA84F0B0FBF1F202FBA3
:10352C0011048BF80D40D2E7002501E0CDE90C74B5
:10353C00C0B2702804D00D987021C0B21FF030FAC0
:10354C0005950B9D00210FAA0423ECB2204624F014
:10355C007DF99DF83C00FE2803D02046FE211FF08B
:10356C001FFA20460621FE2222F068FF4FF400606D
:10357C000D9F0BF116018BF80C50ABF810000020CE
:10358C00ABF81400FF208BF80D708BF80E00F8B21E
:10359C00400050FA87F001EB8000B0F806A0600004
:1035AC0050FA85F001EB8005FE20ABF812A02946FD
:1035BC0001F8020FE14804914FF4006124F032FE4F
:1035CC000020DC493B46099489F800009BF80F0069
:1035DC00097850FA87F0013890FBF1F202FB1100E8
:1035EC00019035F8060F03955FFA83FB0A900D9353
:1035FC00A34500F05681ABEB0400B0FA80F0400913
:10360C000890002007900020C00740F097801FFA18
:10361C008AF4162C74D999F80000002840F04781E0
:10362C00AAF10707584610AAB9B215F0EDF9BDF882
:10363C004E5005F11000A0423FD89DF84A00962844
:10364C003BD1A7EB05099DF8492029465B461FFA9B
:10365C0089F8404619F010FA78BB9DF84B00C10769
:10366C0001D1800706D40020CA46DDF83880DFF887
:10367C00C092C9E7E81D83B20A9813FA80F4B4F536
:10368C00006F01D90120F0E7AC4980B2081A41461D
:10369C00C01A00F50062584624F0D8F8079801309B
:1036AC00B4F5006F079004D101204FF400610A912A
:1036BC00DAE70020CA460A94D7E7AAF1010ADDF836
:1036CC003880DFF86C925446A0B216283BD93628C5
:1036DC00A4F116055846324688BF2025641BABB2B0
:1036EC00A1B224F0B3F82804EED016FA85F010F845
:1036FC00010C962801D0013DF5E705EB040A82E7A1
:10370C00079810B18C4924F041FA0198C0B2834556
:10371C0000F0CB800D99012050FA81F08549097891
:10372C00B0FBF1F202FB1103834903EB430001EB05
:10373C008000B0F81CA0DDE9094055E7079810B1EE
:10374C007D4924F023FA002008900D980B9099F8ED
:10375C000000002840F0AB800A9B7849C3F500605C
:10376C0011FA80F2A3F11000102183B209981EF017
:10377C0037FD99F80010084389F80000089890B1BB
:10378C006C4800780BEB0001013991FBF0F202FB65
:10379C001011C8B20B91400050FA81F0664901EB50
:1037AC008000B0F81CA0DFF890B10B980A99099C26
:1037BC0001238BF80E000398ABF81010BBF9122004
:1037CC00ABF814A001809BF80D10204620F0BEFA37
:1037DC00BBF914209BF80E102046022320F0B6FAF9
:1037EC00BBF81000B8F1000FC0F5006007D00699C7
:1037FC00DFF840A18842A4BF0121029101E0DFF86B
:10380C0034A1069988424FF07C01B8BF7821099CFD
:10381C0020461FF0C5F80BF043FB07469BF80F0042
:10382C000621FC22C01B8BF80F00204622F006FE5E
:10383C000499FC209BF80E30087005989BF8021038
:10384C000D9317FA80F001449AF80000B1FBF0F2E6
:10385C0002FB10118BF802100B910131CAB2B2FBB2
:10386C00F0F202FB10118BF8011003EB43010BEB90
:10387C008101898B102906D10D990131B1FBF0F230
:10388C0002FB10100D900C98C01BB8F1000F0C909F
:10389C003FF41AAE029880F00100C0077FF414AE1A
:1038AC0007E00120A346089051E701984EE700225B
:1038BC003AE07C201FF08EF80446FF281DD17E20B4
:1038CC001FF088F80446FF2817D19BF8014004EB41
:1038DC0044000BEB8000807DFF280AD09AF8000092
:1038EC009BF802100144013991FBF0F202FB101419
:1038FC0003E020467E211FF053F8E0B2FE218BF846
:10390C000340400050FA84F00BEB8000808BABF846
:10391C0006009BF802001FF043F800208BF805000E
:10392C00BBF81000C0F5006210B21DB0BDE8F08FFE
:10393C00A41900209252002098480020F82400205E
:10394C002DE9F04F95B0DFF8F0640546DFF8ECB4E4
:10395C00307803288BF8000040F03C810020307058
:10396C008BF800000CAC204624F0DAFC2046002139
:10397C0022F036FEDFF8C8A4CBF8080046215046EA
:10398C0024F050FC4FF0FF30AAF81400CAF81000D5
:10399C00CAF80C0020F0F0F9002029461CF058FA67
:1039AC000BF11001CBF80C0024F08DFCDBE90502C7
:1039BC00DFF89054B0FBF2F1C9B2042928BF0421FE
:1039CC00B2F5006F8AF80010297040F00181B0EB5D
:1039DC00C12FC0F0FD80DBF80C00002800F0F8804F
:1039EC004FF40060DFF868644FF00009FF22AAF87A
:1039FC000600FF208AF803208AF805900490002026
:103A0C00079000200A9000200890002006900020CB
:103A1C0005900020099000200B90FF200190FF20C2
:103A2C000390FF200290CCB2A14580F0D6805FFAC3
:103A3C0089F700210DAA0423384623F007FFDFF88D
:103A4C000C443846002114AAA0473846012113AA79
:103A5C00A0473846022112AAA0470D996FF06F00BB
:103A6C0050FA81F2C8B20E2A06D8012303FA02F2E8
:103A7C0045F201131A4203D1A0F1FE02022A04D22C
:103A8C0042F28352B2EB914F1DD0384612F078FAC5
:103A9C0000288BF8000040F0DD80384600210DAA8C
:103AAC00042323F0D3FEDFF8A4433846002114AAE4
:103ABC00A0473846012113AAA0473846022112AA72
:103ACC00A0470D99C8B209EB49020AEB8204C1F375
:103ADC000142090AE1759DF8521004F11608FD28FF
:103AEC00627688F80000217601D910212FE0BDF80C
:103AFC0050104FF6FF72914229D1384600213246C0
:103B0C004FF40063DA464FF4006B23F09FFE6FF026
:103B1C00030313FA8BFB1FFA8BF031584A1C01D1AB
:103B2C000328F6D801220123D7B2042F06D8CFB22E
:103B3C00FF2F18BF13460132090AF5E731505BFA23
:103B4C0083F0D346DFF8F8A281B298F80000A18385
:103B5C009DF84E107028A176BDF84C10E1839DF8AD
:103B6C004A10E176BDF8481021840FD0782811D086
:103B7C007C2813D07E2817D0FE281CD0FF2820D1FB
:103B8C000798CDF80890013007901DE00998013096
:103B9C00099019E005980130059015E00698CDF8CC
:103BAC000C90013006900FE00898013008901FFA35
:103BBC0089F0019008E00A98CDF8109001300A9035
:103BCC0002E00B9801300B90297809F101092AE7E2
:103BDC000120307015B0BDE8F08F0B9800060BD1AA
:103BEC000A98C0B2012807D80998C0B2012803D896
:103BFC000898C0B2012811D99348042200240270FD
:103C0C00CAB2E0B2904210D212F0BAF99BF800108E
:103C1C000134084329788BF80000F1E7079BD8B2F0
:103C2C00A0421AD188480022027000208AF80300B2
:103C3C008AF80100481E7E218AF80200BAF81C009E
:103C4C00AAF8060000201EF0ABFE9AF80200FE2136
:103C5C001EF0A6FE9BF80000BCE70998000625D0D4
:103C6C000A98049A000603D1029A180600F0848080
:103C7C00754802210126D5B28AF80220017016FA85
:103C8C0082F0B0FBF4F101FB14008AF80100284625
:103C9C0012F076F98BF800002846FE211EF080FE0B
:103CAC008AF805600020FFF7AFFBD3E70A98049A67
:103CBC00000621D0644801218AF80220017011FA13
:103CCC0082F0039AB0FBF4F101FB140091B2FF29CE
:103CDC008AF801001FD10199FF2919BF8AF8031036
:103CEC0001EB41008AF8030000EB40000AEB800076
:103CFC00808BAAF80600ADE7DDE90520104300062D
:103D0C003FF47AAF20F00CF8A04280F084804E484B
:103D1C00032101703DE048008AF8032010FA82F07C
:103D2C000AEB8000818B1829AAF8061092D3073968
:103D3C00D0B20DAA89B214F067FE9DF83F0040077F
:103D4C00B0D53F49BDF84220002300930323C87827
:103D5C00C988891A0DAA073989B206F025FE0028F0
:103D6C007FF478AFBDF8401000293FF473AF9DF895
:103D7C0044001BF071FB6DE71FF0D2FF0621A0423F
:103D8C00314838BF03210329017002D0062952D0D3
:103D9C0060E71FF0C5FF04468AF80C0000EB4000FA
:103DAC000AEB8000408BAAF80D000BF079F829780B
:103DBC002044B0FBF1F202FB11008AF80200013042
:103DCC00C2B2B2FBF1F202FB11008AF801007C20B6
:103DDC001EF000FEFF2812D17E201EF0FBFDFF28F6
:103DEC000DD1FF201EF0F6FDFF2808D178201EF023
:103DFC00F1FD01469AF80100FF2918BF0846C1B22F
:103E0C008AF80300490051FA80F00AEB8000808B9D
:103E1C00AAF8060019E70798000609D0DFF820A0D9
:103E2C00FE219AF802001EF0BBFD2C78029A41E7A5
:103E3C00054806210170FEE7D31B0020A4190020C1
:103E4C00984800209252002093520020617B02007F
:103E5C00F82400202DE9FC47040015D1002020F0A7
:103E6C00B9FA11E020461AF0D8F8012809D084E0FC
:103E7C008A0740F18C8101F0FD01017000208AF865
:103E8C000600204619F06AFF04F16706B07E002890
:103E9C0073D0317C04F1F00704F5B07804F5C27AE4
:103EAC0004F1820504F5D870DFF89C94022935D012
:103EBC00042945D0052963D0062900F090800729F4
:103ECC00D0D0092900F0F9800B2900F0CB800C2907
:103EDC0000F02B810D2900F0DA800E2900F0FB8018
:103EEC000F2900F06081102900F07A81112900F06F
:103EFC009A81122900F04481142900F0D8811629E6
:103F0C0000F09981172900F0C581FC2935D0FD29D5
:103F1C0000F0EE81FE2900F0F1819FE7F07B012893
:103F2C0009D199F80300002810D01621204621F061
:103F3C00F7FC012022E0204619F0AAFAF0731CE0ED
:103F4C00F07B012813D199F80200002800F01F81A2
:103F5C0000217171FF22FC21204615F0C3FCA079D1
:103F6C0004F1BC0204F1B4010EF010FF8CE7204602
:103F7C0012F066FAF073288868800020BDE8F68796
:103F8C00F07B012810D199F8020020B1012129768B
:103F9C0000207860B860B87B01286CD1FF22062124
:103FAC00204615F09FFC6FE73878012809D1204690
:103FBC001DF0C2FF0128E0D10020B8730121F1737C
:103FCC00DBE778780028D8D004F1D00204F1A40102
:103FDC0004F1E00019F080F80121397054E7F07B0E
:103FEC0001283BD199F80200002844D0608CE08372
:103FFC00204619F0B3FE0120307020461CF0A7FDBE
:10400C0001217171397B787D012910D1C00609D548
:10401C00002188F80510D8F8001098F80600490817
:10402C0016F052FAA079002114F09AFF10E0C006A5
:10403C0009D5D8F8002004F5B37321465208DFF8EF
:10404C000C0324F019F8A0790122002114F0C6FF0A
:10405C00002038733874F873B87315E720461AF0DB
:10406C00EBFE87E7F07B012806D1F87B012804BF23
:10407C00FF22FC2194D08AE0204618F049FA01284E
:10408C0052D10020F87328760120F073FCE6F07B07
:10409C0001280ED199F8020040B1002129760120A7
:1040AC00307020461CF053FD0121717199F803000A
:1040BC00B2E020461DF0ADFA5CE7F07B012806D19A
:1040CC0099F80200002862D0608CE083D9E6204683
:1040DC0016F064FC4EE7F07B01281DD1387D04F20C
:1040EC000D12022804D1A179002014F0B5FFC8E606
:1040FC00032806D1A1791A2014F0AEFF00203875E0
:10410C00BFE66888401E688080B200280CD1A17977
:10411C00222014F0A1FF40E0204616F0B3F8F07313
:10412C00288801216880397527E7F17B04F2151086
:10413C0001291FD1017804F58D7201290BD1417829
:10414C00012907D1518800911388A179C2780020E8
:10415C0014F0C0FF95E66988491E698089B2002970
:10416C00E2D1518800911388A179C278222014F0F1
:10417C00B1FF12E001218170204616F0BDF8F9E67E
:10418C00F07B01280BD199F802000028E2D1688855
:10419C00401E688080B20028C6D12221C6E6204687
:1041AC001AF072FEE6E6F07B012815D198F80900AA
:1041BC0001281CD098F8080001282CD1002188F87F
:1041CC000810688A00090090EA892B8AA1795208A4
:1041DC001A200FF0F1F954E6204611F0EFF8C9E679
:1041EC00F07B01281BD198F80900012813D19AF80B
:1041FC0000100F291CBF002020F0ECF8002088F8DC
:10420C000900698A09090091EA892B8AA179520867
:10421C009AF80100DDE7A87900281ED1B7E72046FF
:10422C0011F01EF9A6E6F07B01283FF433AF2046CF
:10423C0018F062FE9EE6F17B012926D1017B4A062D
:10424C002ED4CB070AD501F0FE0101730023002206
:10425C00A1799AF801000EF029F812E68A0707D521
:10426C0001F0FD01017300230022A1791A20F2E76D
:10427C006888401E688080B200285AD1A17900233A
:10428C00002222200EF012F887E71621204610F0AB
:10429C0053FE6FE6F17B012907D1017B4A06BDD5A0
:1042AC00017B01F0BF010173EBE51721EEE7F17B18
:1042BC00012918D101788A067FF5DAAD01F0DF010A
:1042CC0001700A070ED501F0F7010170BAF81E0053
:1042DC000090BAF81A30BAF81C20BAF81810A07965
:1042EC000EF0B4FDCAE51421204613F0ADFC41E6F6
:1042FC002979FF22204615F0F5FAC5E629790C2913
:10430C0018BF0E2916D00F2902D0142912D017E08D
:10431C00FF22FC21204615F0E5FAB8F812000090B7
:10432C00B8F81030B8F80E20B8F80C10A0790DF0D1
:10433C0053FA22E6FF22204615F0D4FA0120FDE5BF
:10434C00002020F047F818E6984E002079A30100D1
:10435C002DE9F04F91B007201BF00CF8DFF8BCB43E
:10436C0001288BF802001DD8BBF80A00C72887BFAC
:10437C000020ABF803000130ABF80A009BF80000FA
:10438C009BF8051000F0FB0000298BF8000000F0F2
:10439C00428200208BF80500002011B0BDE8F04FE0
:1043AC001AF0E8BF044600208BF80500ABF80A00B1
:1043BC009BF8000040F004008BF8000000201AF07D
:1043CC00D9FF802C28BF802414F0FE00019000F04F
:1043DC002282DFF84C4448F20800002120800020A3
:1043EC001090CDE90E00042023F0F0F901980C9404
:1043FC00DFF8305400EB40040D95A01C0B90DFF857
:10440C00280400680BA923F079FF0420012123F074
:10441C00DDF9DFF81804A91C224624F0A1F8DFF816
:10442C0010E4DFF810840020019AC1B2914280F0B0
:10443C00F281DFF8F8430A9100EB4001DBF81C60D5
:10444C00C8B254FA81F2205C0331537892781B0283
:10445C0060F312439818CAB254FA81F14B78A25CFB
:10446C0089780BF13004CBF814001B0262F3124371
:10447C00002E19441CCCCBF8181008BF0246A0EB38
:10448C00020502EB2512CBF83020224408BF0B4664
:10449C00821ACD1A04EBA202DBF83C4003EB251385
:1044AC00CBF83430CBF838202344CB1A04EBA303DD
:1044BC00002B1C46CBF83C3000D55C42DBF844505A
:1044CC0002F30F020996641B05EB54150695059231
:1044DC0003F30F022C46CBF844500892BBF80C2087
:1044EC00C82A3ED1BBF80E600BF1580A9AE80807AF
:1044FC003EF9162082FB0245DBF84820B9EB040C90
:10450C00DFF838930792DBF84C206AEB0507CA4DAD
:10451C000492DBE914E20392C64A32F9162082FBBC
:10452C000224B3EB020A55F8262068EB0404DFF8EA
:10453C000483BEEB020E039A62F10003029359F856
:10454C002630079AD31A72464FF0C80E0393049B79
:10455C0063F100030493B64BCDF81CE09E46029B1E
:10456C0016E001320BF1500ADBE9174CDBF86470F2
:10457C00BBF80E60B04DDFF8C4920792ABF80C207C
:10458C00DBF848200392DBF84C2004929AE80C04E8
:10459C00521845F8261049F82600DDF814900399B6
:1045AC00089D43F10003CBF8502028F8169011EB2E
:1045BC00000809992EF81650C9FB09A4C5FB05C7BC
:1045CC00CBE9153ACBF84880CBF85C40CBE918C75F
:1045DC0001F101008646CBF81C000498CDF80C8044
:1045EC0040F1000002900592721C0493CBF84C0031
:1045FC0020462C4693B2C72B88BF0022069BABF8F3
:10460C000E200322B3FBF2F5782D98BF7825B5FB6D
:10461C00F2F2A2420BDADBF840600022F146A6422D
:10462C00B8BF01229BF80930012B0AD068E0DBF8F7
:10463C0040600122F1468BF809200022A642B8BF47
:10464C0001229BF80830002B5AD0002A58D1012E99
:10465C0056DBAE4254D3DBF82050CDF800C0CDF879
:10466C0018A0BA46002D41D04E1BA6F121038A2B6F
:10467C003CD89BF806C09BF807500BF168070BEB76
:10468C004503BCF1050FA3F868609CBF0CF1010C4D
:10469C008BF806C06B1C06250026B3FBF5F505EB65
:1046AC004505A3EB450365468BF8073025B137F874
:1046BC00023B013D1E44F9E7C6B141F270730CFB9D
:1046CC0003F303EB5603B3FBF6F5A5F128038C2B90
:1046DC000CD89BF80330CBF8241003EB43062E4484
:1046EC000236002B18BFB5088BF803505746DDF87F
:1046FC0018A0DDF800C00023CBF820108BF809308F
:10470C008BF80820DBF824205546CBF840403AB112
:10471C00A9EB0202B2F5C87F84BF00228BF80320FC
:10472C00079A1FFA82F8B8F1630F2BD9DBF82C200B
:10473C00DFF8FCE0A9EB0202142A2FD30646DDE9D0
:10474C00021042460023CBF82C900997644622F0C5
:10475C0041FE0746DDE9041023F038FD8246284669
:10476C00314623F033FD17F01CFB09990546204612
:10477C0023F02CFD17F015FBB7F5FA6F28BFBAF52F
:10478C00FA6F10D2DBF82800DFF8A4E0A9EB0000E8
:10479C00B0F5C87F84BF00208BF804000A98DFF8BE
:1047AC009480023040E6782D28BF7728EAD9AAFBFE
:1047BC0005124FF47A734FF47A76A1FB035102FB86
:1047CC000311A7FB0023284622F004FEC828D9D3E6
:1047DC00B0F5E16FD6D81721CBF82890DFF850E070
:1047EC00484300F5FA7080B2B0FBF6F0C0F16E00F1
:1047FC0080B2642828BF6420462898BF46209BF8C6
:10480C00041001EB410202440232002918BF900847
:10481C008BF80400C2E711B0BDE8F08F70130020D4
:10482C008209002000080020D8500020040B002032
:10483C00003D0020903E0020F82C00201830002075
:10484C002DE9FE4F04460020009001900CB91FF09A
:10485C00C1FD04F15C08D8F800500DB912203DE2FE
:10486C0041F6230028800021698002222A736A7392
:10487C00694620460EF04AFB08B907202EE2009943
:10488C0001B1A860A8682061D8F80400407A1CF037
:10489C000BF8253060750021A873E973DFF840240C
:1048AC00107804F147018874D8F80400017D0229BE
:1048BC0004BF00201FF08EFDD8F8040004F124077B
:1048CC00017D28461FF009F978791DF00BFA7979EA
:1048DC000246284623F055FCD8F8040041784806D7
:1048EC000AD5E07DC10604D5E07F40F04000E077BA
:1048FC0002E040F04000E07505F18C0600203071BC
:10490C00B97F04F1300005F16009890001F0040160
:10491C003171C5F89C00E07D05F1940AD8F80410BB
:10492C00C20652D54B789A060AD500F0FE00E07507
:10493C00487810F0030F03D1E07F00F0FE00E07721
:10494C00E07D1EF0ECFB207695F810C0421C002395
:10495C00CCF380010CF003001CF05EFC024680B22C
:10496C0000F59B701E2390FBF3F31E2101FB13003B
:10497C00C0B200281ABF02F11E03181A104602F525
:10498C00967291B24FF01E0C91FBFCFC1E2300F5AD
:10499C009B7003FB1C11C9B209B11E32521A237D44
:1049AC0091B2A2835B1E4B4313FA80F0608380B2FA
:1049BC00B4308000CAF800000620F071E17F41F0AD
:1049CC000801E177CDF804901CE040F00100E0759F
:1049DC0049784A0748BF40F00200E0751EF09FFB83
:1049EC00207695F810C0421C0023CCF380010CF00B
:1049FC0003001CF011FC00F59670A0830020CAF88F
:104A0C000000F071207EA17D00224FF0010A60F3BE
:104A1C000501A17505F1BC000170E17D82700322D6
:104A2C004170012181708270B97F890001F004010D
:104A3C0041F003018170FA7F62F3C30181700021A0
:104A4C00C1700020C5F8C400388CC0F30B0038844A
:104A5C00D8F80410CA7D40EA023000223884E17D87
:104A6C0020460EF00FF819E005EB4A1B20222946D0
:104A7C00584622F095FD05208BF80C00A08B800089
:104A8C00CBF8080078791DF02DF979790246584653
:104A9C0023F077FB0AF101005FFA80FA207D824552
:104AAC00E2DB204614F088FC207D012809D013D3CA
:104ABC00032809D03FBF05F12001696001986862A5
:104ACC000AE00198686007E005F12001696005F1D2
:104ADC00400068620198686441F624010022A9F83C
:104AEC000010A9F80220A868618B05F1A00BDFF873
:104AFC00F4A100EB8100A8668220022189F80C0049
:104B0C0089F80D1094F8210089F80F2000F03F006F
:104B1C0089F80E00D8F80400817D48461EF0DDFFB0
:104B2C0078791DF0DFF8A9F812000020CBF800000E
:104B3C00D8F80400417811F0030F20D01FF0A8FA28
:104B4C00CBF80000DAF818000078C1074CBF1F2022
:104B5C000F20DAF8181009788A0748BF40F02000B7
:104B6C00DAF8181009784A0748BF40F04000DAF824
:104B7C00181009780A0748BF40F0800030760020F2
:104B8C007076D8F80410584A897C01F003017176CC
:104B9C00B87F60F382017176F87F60F3C3017176A0
:104BAC0041F010017176107830B141F0400171760E
:104BBC00307E00F0FE003076E07F05F1A80B1EF091
:104BCC00AEFA84F82000204611F040F9E07FC106CF
:104BDC0039D5D8F8040094F820204178521C880765
:104BEC004EBFD21E94F84700121899F810000023FB
:104BFC00D2B2C0F3800100F003001CF00DFB388032
:104C0C0039881E2301F59670C0F11E0290FBF3F358
:104C1C001E2000FB03223A71D8F80420507882073A
:104C2C004CBF00204FF49B70411839807980A86EDE
:104C3C0039883A795218A63200EB8200CBF8000082
:104C4C000221F17603E00020CBF80000F07604F1AD
:104C5C003000C5F8B400D8F8041005F1B8004A7853
:104C6C00510706D504F13C020260707E40F0200032
:104C7C0006E01E490A6851680160707E00F0DF0092
:104C8C00707694F82000A17F60F30501A17740F6BF
:104C9C000B000021A9F82000A9F82210DAF838003E
:104CAC0000888000C5F88800DAF8380000880028F1
:104CBC001ABF0721317030700221717004F1470066
:104CCC0081787180D8F804004178880744BF0121AD
:104CDC007180009808B10CF077FA0020BDE8FE8FC7
:104CEC007252002084930200C8500020945100207E
:104CFC002DE9F84305460C46480413D4A00024D4EF
:104D0C00A0075CD460057ED4200500F10481200747
:104D1C0000F13781600040F1F48017F00BF924F0BA
:104D2C008044EEE023F01CF8DFF810140F6D3FB157
:104D3C00D7E90A1202F0E04201F00A01891849D0C1
:104D4C0023F0ACFA24F48044DBE0B948DFF8F073CC
:104D5C00016841F080010160B878012804D1042079
:104D6C001DF06CFE0020B87022F0FAFF06460420FD
:104D7C0023F0D2FBDFF8CC130A68904219D12A7EBB
:104D8C00BAB1FA68AAB1DFF8B403806C002800F05D
:104D9C009580C16840F603020988914206D0C0682C
:104DAC0040F604010088884240F0888005F1140028
:104DBC0086E040F6C4120860C5E9042282E007F0E0
:104DCC0031F9DFF87803006C002840F09B8024F068
:104DDC00020496E0D7E90A65D7E90A12AA43B1435F
:104DEC00C7E90A1223F05AFAB8680028AAD056EA82
:104DFC000500A7D0D7F808C03869B7F9301032468B
:104E0C002B46E0479EE722F0ABFF054620F0C6F9A3
:104E1C00002800F0B380C948876B002F00F0AE80EB
:104E2C00DFF81C830420C849002288F81800C34806
:104E3C0022F07FF923F056FAC44823F029FA22F025
:104E4C006FFAC8F810000125042088F802501EF0F3
:104E5C00B9FA386990F82810C8F80400490703D546
:104E6C00436A042100229847012018F06FFED8F8FD
:104E7C000400457610F0ACF9D8F8040081680B46B4
:104E8C001A465B684BB11E88A6F60306072EF7D8A8
:104E9C0005FA06F616F0830FF2D0537B03F0F003FD
:104EAC00013353730023FD6853602D88A5F6030569
:104EBC00012D00F28880C8F810309DE005F110003B
:104ECC001CF05EFC304623F0E9F91EF093FA78B141
:104EDC002E6A28466FF4807100224FF00073B047A1
:104EEC009648806B10B117F025F801E044F00204ED
:104EFC00EE692846002100224FF08063B04724F071
:104F0C00005434B1944821462830BDE8F84323F0CE
:104F1C0019BBBDE8F8838A4EB078012804D104206F
:104F2C001DF08CFD0020B0701EF064FA38B1706872
:104F3C006FF4807100224FF00073056AA847306946
:104F4C0040B122F0EDF932697168801A000BC8602B
:104F5C0000203061794D7F490022284622F0E9F883
:104F6C0002203076286C20B17B480221283023F0B7
:104F7C00E9FA16F0DFFF24F40064C2E723F0B2F97B
:104F8C0041E022F0EDFE054620F008F9A0B1DFF873
:104F9C00B08198F8000000070ED498F900000028A2
:104FAC000AD4684610F0AEFA08B1009820B1DFF8C8
:104FBC00AC9199F8610048B323F094F916F0BAFF5C
:104FCC0024F008049DE7034633F8385FA5B190F848
:104FDC00445090F8456005F0F00580F8445006F018
:104FEC00F005013580F8455000255360C5634587B1
:104FFC00507B00F0F000507355480022C2610160F4
:10500C00012020F077FE24F480647AE70026012743
:10501C00602E0FD009EB0600817A31B18772407A8D
:10502C0007FA00F0C0B21DF023FD2036F0E700BFF8
:10503C00CC210840032088F81800444823F028F9B4
:10504C0023F050F9424F3D4D0022786900207861E1
:10505C00F968F8602846424922F06BF822F060F9B2
:10506C00D8F80C10D8F82020411A02EB1130B0EB14
:10507C00113F38BF4FF0FF3098F82410C8F82000CB
:10508C0021B1D8F80810B0EBC12F20D920F042FE86
:10509C00B8B140F60900414621F83C0F0020488089
:1050AC004A7B02F0F00201324A730A7B02F0F002F2
:1050BC000A734860F8613960B8F83E0010F4406F2C
:1050CC00FAD00020C8F82000012088F824001AF03B
:1050DC009BFE2448002101600220002120F00AFEE2
:1050EC0002201DF0ABFC10200DF0F0FD98F8010033
:1050FC0020B9D8F80400503023F020FA1A488078F0
:10510C0010B90D200DF0E2FD98F8250028B1002013
:10511C0088F8250005201DF091FC002088F8180067
:10512C001248C8F81C000220B5F85610B5F85420E7
:10513C00914208BF072015F0C5FE3FE7C8160020B6
:10514C00C81400208C1C002085510200E04800206F
:10515C0000100440E1FB000064160020784500209C
:10516C00A5BF01000000046070990200E1F9000085
:10517C002DE9F84FDFF84054A9780024FF2904BF2B
:10518C0000201FF027F9A87823F068F9054605F1EF
:10519C0068010A6805F5DB7605F18807106808B127
:1051AC00EC8310E0887B002804BF397800290AD1F1
:1051BC00B87B002804BF3178002904D1287F01284E
:1051CC0004BF688CE8832989E88B4118491C6981E4
:1051DC00284620F0D8FB01281EBFDFF8E003017839
:1051EC00012903D12989EC83491C698138784FF650
:1051FC00FF7801280DD17A88698928891FF010FD64
:10520C0038B129896889491C8AB290422DD0788896
:10521C0020E0B87B01280DD13A8A698928891FF0D2
:10522C00FFFC38B129896889491C8AB290421CD08C
:10523C00388A0FE03078012817D17288698928895B
:10524C001FF0EEFC88B129896889491C8AB290420A
:10525C000BD0708889B2884207D040442989688174
:10526C0080B223F087F84044E8833078012810D1CD
:10527C0028897188401C80B288420ADB707902212F
:10528C00317030713479A9790020234622460DF013
:10529C000DF805F5AC71087920B128890021E98356
:1052AC00401C6881387805F12E09012814D12A890F
:1052BC007888521C92B290420ED1688129897888E4
:1052CC0023F058F8B9F80410B7F8068001FB0088F1
:1052DC00284614F07FFB01E0B9F80480E88B40F617
:1052EC00C411B74B401C00FB08F82868C26801FBCE
:1052FC000822C260B348026810788009032840F085
:10530C00F880DA7BB048D20740F1D980B5F812C0EA
:10531C004FF4C87E00220CFB08FCBCFBFEFE0EF119
:10532C00010EC5F814E00280E88BC5F81880DFF890
:10533C009CA285F82000DAF80000AA7900F1080C8C
:10534C004FEA421E5CF80E20D5F800C0CCF81020B5
:10535C0000F10802A8794FEA401C2868D0F80CE04C
:10536C006869AEEB000E42F80CE0DAF80000AA799E
:10537C0000F1080C4FEA421E5CF80E20D5F800C074
:10538C00CCF80820AA7900F10C0C0C3052011CF856
:10539C0002E04FF0000C0EF0F00E4EF0020E00F892
:1053AC0002E0DAF80000821CA879400122F800C063
:1053BC00874A106800F1140EA8794FEA401B5EF87A
:1053CC000BC0A8794FEA401B68690CEB400C4EF8F7
:1053DC000BC03F78022F12D11068AF7900F1140C7A
:1053EC0014304FEA471E5CF80E7099F800E095F8FF
:1053FC0006C011FB0E774FEA4C1C40F80C70D87BA2
:10540C00C30740F18080DAF80000AF7900F108049E
:10541C0008307F01E359AC796401A3F5A86303510B
:10542C00DAF80000AC7900F10803640118592B6814
:10543C0098602B6867489C6800FB0848C3F810808C
:10544C001068AF7900F1140414307F01E359AC7982
:10545C00640103F5F6630351307904280BD110680D
:10546C00AF7900F1140414307F01E359AC79640175
:10547C0003F5616303511068AC7900F11403640106
:10548C001859C5F85801544B186B1468AF7900685B
:10549C0004EB471CB9F8044064274443B4FBF7F70A
:1054AC007943A1F59661CCF81C1010684B490A7829
:1054BC00012A51D1A9790B304901425452E002889A
:1054CC00521C1FFA82FCBCF1010F03BF05F5AC7E28
:1054DC00BEF806C00CF2DC5CB5F812C00CFB08FC84
:1054EC004FF4C87EBCFBFEFC0CF1010CC5F814C0DB
:1054FC0019E7688A4FF4C87200FB08F0B0FBF2F2AF
:10550C00521C6A6110E7042C0BD11068AF7900F1C2
:10551C00140414307F01E359AC79640103F5616321
:10552C000351307904280CBF4FF4AA504FF4E660B5
:10553C001368AF7903F114047F01E359181AB9F811
:10554C0004304B43A3F5167398429CD3082128468C
:10555C0020F0E6F901202CE0596AAA790B30497841
:10556C00520181541E4C20781CF0BCFB0246DAF828
:10557C000000AB79217800EB431022F002FE307969
:10558C0008B91EF027FF327A3179A8791DF0E0FCBA
:10559C00284622F0A0F8DAF80000A97900EB4112B5
:1055AC002868072142600F4A1170284617F034FD15
:1055BC000020BDE8F28F00BF7C5000207B52002001
:1055CC00984E00205851002044520020E4500020F6
:1055DC00E85000203CF6FFFF849302007652002036
:1055EC006A52002068520020DFF874038078FF288C
:1055FC0000D170472DE9F84F22F030FF044604F239
:10560C001F100178012908BF417800F0588104F17E
:10561C007400017D04F2E31902291CD199F80100F0
:10562C00C0F3C00098B104F12E00018904F12E02E0
:10563C0009090091D3888288A179002052080DF0C5
:10564C00BBFF99F8010000F0E70089F80100002089
:10565C0004F17401087594F8B601022804BF002106
:10566C0084F8B61194F89600022804BF002184F83F
:10567C00961004F5AA7ABAF8021019B19AF800003B
:10568C000EF0ECFB07201CF0AEFCB64B6089B64F5D
:10569C0020811E68A37906F10E02B97A5B01D25CF7
:1056AC0004F596739E88FD7997F80CE097F80BC07B
:1056BC007619787B9E803E7A01EB0508DD88F044F4
:1056CC00E044AE19DE801D897E7A8044AE191E81BD
:1056DC005D894D195D819E89B444A3F80CC0DD89A8
:1056EC007544DD81B3F810C004F5917560441882DF
:1056FC00588A97F800C060445882988A97F801C07D
:10570C0060449882D88A97F802C06044D882188B7B
:10571C0097F803C060441883588B97F804C0604412
:10572C005883988B97F805C060449883D88B97F86A
:10573C0006C06044D883A888401CA880B5F800C077
:10574C00C444A5F800C0688808186880186860B15F
:10575C0030F812C0C44420F812C0186800EB4200A4
:10576C00B0F84A208918A0F84A101FF08DFFF8797C
:10577C007E4E002804BFF87A002805D1387B00281B
:10578C0004BF787B002845D04FF0000B04F5DB728A
:10579C00A2F820B099F80000C0090FD099F80100C8
:1057AC0000F00701022905DA411C61F3020089F8B7
:1057BC00010003E0A079002122F098FE2189E08904
:1057CC0084F810B04118207FA181012804BF608C9F
:1057DC00E083A179012207201BF059FF787804F1AE
:1057EC00740160B1012222778878002804BF087DFB
:1057FC00002804D194F8960008B9608CE0839AF8DC
:10580C000800002865D0022804BFF87A00285BD174
:10581C0000225CE0A179002207201BF038FF002059
:10582C00E08399F8011011F0070F03D199F80000EB
:10583C00C00903D0A079002122F058FEB87A68B1D3
:10584C00207C4FF0010B08B1E089A081207F002162
:10585C002174012823D1608CE08320E0E8884FF08C
:10586C00020B401CE880207CC8B1336894F82E9061
:10587C0040F6C41003F114016369A2795B0010FBBC
:10588C000933520103F5F6638B503168A07901EBB3
:10589C004010C17C01F0F00141F00401C174A089F9
:1058AC002189814206D0884298D2081A41F2AB0174
:1058BC00884293DA288800280CBF3E210821204614
:1058CC00BDE8F44F20F02CB8787A10B102228AF897
:1058DC000820FA7B3068D3070DD53A692368143059
:1058EC00DA602268D36803F59073D360A279002341
:1058FC005201835012E0A37900F114025B01D058DD
:10590C00CAF8040017480068A37900F108025B018B
:10591C00D0582268D0600020E0832077144A506968
:10592C000078820702D5B87B802800D181200870CE
:10593C002046FEF78FFA012810D00121204614F0E2
:10594C0085F82246414658460CF016FDFFF710FC30
:10595C00012803D0BDE8F14F00F06CBBBDE8F18F1E
:10596C007C500020E4500020984E0020E85000208D
:10597C00849302002DE9F0478AB0DFF8709399F810
:10598C00070010B1002089F80700002040F60B61D9
:10599C0002910990CDE907000390CDE900000B209E
:1059AC00002121F013FF6846069002A805900820FC
:1059BC000490CF48006804A922F0A0FC0B20012120
:1059CC0021F004FF99F800009DF80630C94A40F018
:1059DC00040089F800009DF8070060F30B23B3F571
:1059EC00006F28BF13439DF804109DF805609DF8C7
:1059FC0002009DF80350A9F80C3066F30B2165F3F7
:105A0C000B20B1F5006F28BF1143B0F5006FA9F85A
:105A1C000A1028BF1043D9E90665D9F82020A9F847
:105A2C0008004EB945B93AB909B21FB28646C9E960
:105A3C0006018C463A460CE0871B09B206EB271E82
:105A4C004F1B05EB271C1FB2BB1AC9E906EC02EB76
:105A5C00231200FB00F3D9F82C40C9F82020D9E917
:105A6C00095A11FB013317FB0738002CA8EB04066D
:105A7C00434618BF04EB2613BA1AC9F82C3048BF9A
:105A8C005242B0EB0E0048BF40421044401BB1EBF9
:105A9C000C0148BF4942084405EBA000A0EB0A01E9
:105AAC00C9F830000AEBE101C9E909011FF0F2FF66
:105ABC00D9F8381088420FD20022D9F824C0C9E98D
:105ACC000F22A9F80420C9F85020C9F8482089F8F9
